{
  "contractName": "Exchange",
  "abi": [
    {
      "inputs": [
        {
          "internalType": "uint256",
          "name": "initial",
          "type": "uint256"
        }
      ],
      "stateMutability": "nonpayable",
      "type": "constructor"
    },
    {
      "anonymous": false,
      "inputs": [
        {
          "indexed": true,
          "internalType": "int256",
          "name": "index",
          "type": "int256"
        },
        {
          "indexed": true,
          "internalType": "uint256",
          "name": "_priceinwei",
          "type": "uint256"
        },
        {
          "indexed": false,
          "internalType": "uint256",
          "name": "_offerkey",
          "type": "uint256"
        }
      ],
      "name": "BuyOrderCancelled",
      "type": "event"
    },
    {
      "anonymous": false,
      "inputs": [
        {
          "indexed": true,
          "internalType": "address",
          "name": "_from",
          "type": "address"
        },
        {
          "indexed": false,
          "internalType": "uint256",
          "name": "_amount",
          "type": "uint256"
        },
        {
          "indexed": false,
          "internalType": "uint256",
          "name": "_timestamp",
          "type": "uint256"
        }
      ],
      "name": "DepositEtherEmit",
      "type": "event"
    },
    {
      "anonymous": false,
      "inputs": [
        {
          "indexed": true,
          "internalType": "address",
          "name": "_from",
          "type": "address"
        },
        {
          "indexed": true,
          "internalType": "uint256",
          "name": "_amount",
          "type": "uint256"
        },
        {
          "indexed": true,
          "internalType": "uint256",
          "name": "_symbolindex",
          "type": "uint256"
        },
        {
          "indexed": false,
          "internalType": "uint256",
          "name": "_timestamp",
          "type": "uint256"
        }
      ],
      "name": "DepositTokenEmit",
      "type": "event"
    },
    {
      "anonymous": false,
      "inputs": [
        {
          "indexed": true,
          "internalType": "int256",
          "name": "index",
          "type": "int256"
        },
        {
          "indexed": false,
          "internalType": "uint256",
          "name": "_priceinwei",
          "type": "uint256"
        },
        {
          "indexed": false,
          "internalType": "uint256",
          "name": "_amounttoken",
          "type": "uint256"
        },
        {
          "indexed": true,
          "internalType": "address",
          "name": "who",
          "type": "address"
        },
        {
          "indexed": true,
          "internalType": "uint256",
          "name": "offerlength",
          "type": "uint256"
        }
      ],
      "name": "LimitSellOrderCreated",
      "type": "event"
    },
    {
      "anonymous": false,
      "inputs": [
        {
          "indexed": true,
          "internalType": "int256",
          "name": "index",
          "type": "int256"
        },
        {
          "indexed": false,
          "internalType": "uint256",
          "name": "_priceinwei",
          "type": "uint256"
        },
        {
          "indexed": false,
          "internalType": "uint256",
          "name": "_amounttoken",
          "type": "uint256"
        },
        {
          "indexed": true,
          "internalType": "address",
          "name": "who",
          "type": "address"
        },
        {
          "indexed": true,
          "internalType": "uint256",
          "name": "offerlength",
          "type": "uint256"
        }
      ],
      "name": "LimtBuyOrderCreated",
      "type": "event"
    },
    {
      "anonymous": false,
      "inputs": [
        {
          "indexed": true,
          "internalType": "int256",
          "name": "index",
          "type": "int256"
        },
        {
          "indexed": true,
          "internalType": "uint256",
          "name": "_priceinwei",
          "type": "uint256"
        },
        {
          "indexed": false,
          "internalType": "uint256",
          "name": "_offerkey",
          "type": "uint256"
        }
      ],
      "name": "SellOrderCancelled",
      "type": "event"
    },
    {
      "anonymous": false,
      "inputs": [
        {
          "indexed": true,
          "internalType": "uint256",
          "name": "_symbolIndex",
          "type": "uint256"
        },
        {
          "indexed": false,
          "internalType": "uint256",
          "name": "_amount",
          "type": "uint256"
        },
        {
          "indexed": false,
          "internalType": "uint256",
          "name": "_priceInWei",
          "type": "uint256"
        },
        {
          "indexed": false,
          "internalType": "uint256",
          "name": "_orderKey",
          "type": "uint256"
        }
      ],
      "name": "SellOrderFulfilled",
      "type": "event"
    },
    {
      "anonymous": false,
      "inputs": [
        {
          "indexed": true,
          "internalType": "address",
          "name": "_To",
          "type": "address"
        },
        {
          "indexed": false,
          "internalType": "uint256",
          "name": "_amount",
          "type": "uint256"
        },
        {
          "indexed": false,
          "internalType": "uint256",
          "name": "_timestamp",
          "type": "uint256"
        }
      ],
      "name": "WithEtherEmit",
      "type": "event"
    },
    {
      "anonymous": false,
      "inputs": [
        {
          "indexed": true,
          "internalType": "address",
          "name": "_To",
          "type": "address"
        },
        {
          "indexed": true,
          "internalType": "uint256",
          "name": "_amount",
          "type": "uint256"
        },
        {
          "indexed": true,
          "internalType": "uint256",
          "name": "_symbolindex",
          "type": "uint256"
        },
        {
          "indexed": false,
          "internalType": "uint256",
          "name": "_timestamp",
          "type": "uint256"
        }
      ],
      "name": "WithdrawTokenEmit",
      "type": "event"
    },
    {
      "inputs": [],
      "name": "depositEther",
      "outputs": [],
      "stateMutability": "payable",
      "type": "function",
      "payable": true
    },
    {
      "inputs": [
        {
          "internalType": "uint256",
          "name": "amountInWei",
          "type": "uint256"
        }
      ],
      "name": "withdrawEther",
      "outputs": [],
      "stateMutability": "nonpayable",
      "type": "function"
    },
    {
      "inputs": [],
      "name": "getEthBalanceInWei",
      "outputs": [
        {
          "internalType": "uint256",
          "name": "",
          "type": "uint256"
        }
      ],
      "stateMutability": "view",
      "type": "function",
      "constant": true
    },
    {
      "inputs": [
        {
          "internalType": "string",
          "name": "symbolName",
          "type": "string"
        },
        {
          "internalType": "address",
          "name": "erc20TokenAddress",
          "type": "address"
        }
      ],
      "name": "addToken",
      "outputs": [],
      "stateMutability": "nonpayable",
      "type": "function"
    },
    {
      "inputs": [
        {
          "internalType": "string",
          "name": "symbolName",
          "type": "string"
        }
      ],
      "name": "hasToken",
      "outputs": [
        {
          "internalType": "bool",
          "name": "",
          "type": "bool"
        }
      ],
      "stateMutability": "view",
      "type": "function",
      "constant": true
    },
    {
      "inputs": [
        {
          "internalType": "string",
          "name": "symbolName",
          "type": "string"
        }
      ],
      "name": "getsymbolIndex",
      "outputs": [
        {
          "internalType": "uint8",
          "name": "",
          "type": "uint8"
        }
      ],
      "stateMutability": "view",
      "type": "function",
      "constant": true
    },
    {
      "inputs": [
        {
          "internalType": "string",
          "name": "symbol",
          "type": "string"
        }
      ],
      "name": "getSymbolIndexOrThrow",
      "outputs": [
        {
          "internalType": "uint8",
          "name": "",
          "type": "uint8"
        }
      ],
      "stateMutability": "view",
      "type": "function",
      "constant": true
    },
    {
      "inputs": [
        {
          "internalType": "string",
          "name": "_a",
          "type": "string"
        },
        {
          "internalType": "string",
          "name": "_b",
          "type": "string"
        }
      ],
      "name": "stringEqual",
      "outputs": [
        {
          "internalType": "bool",
          "name": "",
          "type": "bool"
        }
      ],
      "stateMutability": "view",
      "type": "function",
      "constant": true
    },
    {
      "inputs": [
        {
          "internalType": "string",
          "name": "symbolName",
          "type": "string"
        },
        {
          "internalType": "uint256",
          "name": "amount",
          "type": "uint256"
        }
      ],
      "name": "depositToken",
      "outputs": [],
      "stateMutability": "nonpayable",
      "type": "function"
    },
    {
      "inputs": [
        {
          "internalType": "string",
          "name": "symbolName",
          "type": "string"
        },
        {
          "internalType": "uint256",
          "name": "amount",
          "type": "uint256"
        }
      ],
      "name": "withToken",
      "outputs": [],
      "stateMutability": "nonpayable",
      "type": "function"
    },
    {
      "inputs": [
        {
          "internalType": "string",
          "name": "symbolName",
          "type": "string"
        }
      ],
      "name": "getBalance",
      "outputs": [
        {
          "internalType": "uint256",
          "name": "",
          "type": "uint256"
        }
      ],
      "stateMutability": "view",
      "type": "function",
      "constant": true
    },
    {
      "inputs": [
        {
          "internalType": "string",
          "name": "symbolName",
          "type": "string"
        }
      ],
      "name": "getBuyOrderBook",
      "outputs": [
        {
          "internalType": "uint256[]",
          "name": "",
          "type": "uint256[]"
        },
        {
          "internalType": "uint256[]",
          "name": "",
          "type": "uint256[]"
        }
      ],
      "stateMutability": "view",
      "type": "function",
      "constant": true
    },
    {
      "inputs": [
        {
          "internalType": "string",
          "name": "symbolName",
          "type": "string"
        }
      ],
      "name": "getSellOrderBook",
      "outputs": [
        {
          "internalType": "uint256[]",
          "name": "",
          "type": "uint256[]"
        },
        {
          "internalType": "uint256[]",
          "name": "",
          "type": "uint256[]"
        }
      ],
      "stateMutability": "view",
      "type": "function",
      "constant": true
    },
    {
      "inputs": [
        {
          "internalType": "string",
          "name": "symbolName",
          "type": "string"
        },
        {
          "internalType": "uint256",
          "name": "priceInWei",
          "type": "uint256"
        },
        {
          "internalType": "uint256",
          "name": "amount",
          "type": "uint256"
        }
      ],
      "name": "buyToken",
      "outputs": [],
      "stateMutability": "nonpayable",
      "type": "function"
    },
    {
      "inputs": [
        {
          "internalType": "string",
          "name": "symbolName",
          "type": "string"
        },
        {
          "internalType": "uint256",
          "name": "priceInWei",
          "type": "uint256"
        },
        {
          "internalType": "uint256",
          "name": "amount",
          "type": "uint256"
        }
      ],
      "name": "sellToken",
      "outputs": [],
      "stateMutability": "nonpayable",
      "type": "function"
    },
    {
      "inputs": [
        {
          "internalType": "string",
          "name": "symbolName",
          "type": "string"
        },
        {
          "internalType": "bool",
          "name": "isSellorder",
          "type": "bool"
        },
        {
          "internalType": "uint256",
          "name": "priceInWei",
          "type": "uint256"
        },
        {
          "internalType": "uint256",
          "name": "offerkey",
          "type": "uint256"
        }
      ],
      "name": "cancelOrder",
      "outputs": [],
      "stateMutability": "nonpayable",
      "type": "function"
    },
    {
      "inputs": [
        {
          "internalType": "uint8",
          "name": "Index",
          "type": "uint8"
        },
        {
          "internalType": "uint256",
          "name": "priceinwei",
          "type": "uint256"
        },
        {
          "internalType": "uint256",
          "name": "amount",
          "type": "uint256"
        },
        {
          "internalType": "address",
          "name": "sender",
          "type": "address"
        }
      ],
      "name": "addBuyOffer",
      "outputs": [],
      "stateMutability": "nonpayable",
      "type": "function"
    },
    {
      "inputs": [
        {
          "internalType": "uint8",
          "name": "Index",
          "type": "uint8"
        },
        {
          "internalType": "uint256",
          "name": "priceinwei",
          "type": "uint256"
        },
        {
          "internalType": "uint256",
          "name": "amount",
          "type": "uint256"
        },
        {
          "internalType": "address",
          "name": "sender",
          "type": "address"
        }
      ],
      "name": "addSellOffer",
      "outputs": [],
      "stateMutability": "nonpayable",
      "type": "function"
    }
  ],
  "bytecode": "0x60806040523480156200001157600080fd5b506040516200588c3803806200588c833981810160405260208110156200003757600080fd5b8101908080519060200190929190505050336000806101000a81548173ffffffffffffffffffffffffffffffffffffffff021916908373ffffffffffffffffffffffffffffffffffffffff160217905550506157f380620000996000396000f3fe6080604052600436106101095760003560e01c80638ea0081811610095578063ae13a35911610064578063ae13a35914610b52578063b0b22c2c14610c31578063bd6dba4c14610d19578063d1a3b02514610deb578063ebd354c014610ed357610109565b80638ea0081814610816578063977377f8146108f457806398ea5fca146109d3578063a1298368146109dd57610109565b80633bed33ce116100dc5780633bed33ce1461044c5780635ab8ea33146104875780636912fcf714610563578063728ff029146105d5578063851030fe1461073a57610109565b806303bc4a271461010e5780631a8eb72b1461027357806333ad57e41461029e5780633a51d24614610370575b600080fd5b34801561011a57600080fd5b506101d46004803603602081101561013157600080fd5b810190808035906020019064010000000081111561014e57600080fd5b82018360208201111561016057600080fd5b8035906020019184600183028401116401000000008311171561018257600080fd5b91908080601f016020809104026020016040519081016040528093929190818152602001838380828437600081840152601f19601f820116905080830192505050505050509192919290505050610f45565b604051808060200180602001838103835285818151815260200191508051906020019060200280838360005b8381101561021b578082015181840152602081019050610200565b50505050905001838103825284818151815260200191508051906020019060200280838360005b8381101561025d578082015181840152602081019050610242565b5050505090500194505050505060405180910390f35b34801561027f57600080fd5b50610288611216565b6040518082815260200191505060405180910390f35b3480156102aa57600080fd5b5061036e600480360360408110156102c157600080fd5b81019080803590602001906401000000008111156102de57600080fd5b8201836020820111156102f057600080fd5b8035906020019184600183028401116401000000008311171561031257600080fd5b91908080601f016020809104026020016040519081016040528093929190818152602001838380828437600081840152601f19601f8201169050808301925050505050505091929192908035906020019092919050505061125d565b005b34801561037c57600080fd5b506104366004803603602081101561039357600080fd5b81019080803590602001906401000000008111156103b057600080fd5b8201836020820111156103c257600080fd5b803590602001918460018302840111640100000000831117156103e457600080fd5b91908080601f016020809104026020016040519081016040528093929190818152602001838380828437600081840152601f19601f8201169050808301925050505050505091929192905050506116ae565b6040518082815260200191505060405180910390f35b34801561045857600080fd5b506104856004803603602081101561046f57600080fd5b810190808035906020019092919050505061171b565b005b34801561049357600080fd5b50610561600480360360608110156104aa57600080fd5b81019080803590602001906401000000008111156104c757600080fd5b8201836020820111156104d957600080fd5b803590602001918460018302840111640100000000831117156104fb57600080fd5b91908080601f016020809104026020016040519081016040528093929190818152602001838380828437600081840152601f19601f82011690508083019250505050505050919291929080359060200190929190803590602001909291905050506118cd565b005b34801561056f57600080fd5b506105d36004803603608081101561058657600080fd5b81019080803560ff1690602001909291908035906020019092919080359060200190929190803573ffffffffffffffffffffffffffffffffffffffff169060200190929190505050612798565b005b3480156105e157600080fd5b5061069b600480360360208110156105f857600080fd5b810190808035906020019064010000000081111561061557600080fd5b82018360208201111561062757600080fd5b8035906020019184600183028401116401000000008311171561064957600080fd5b91908080601f016020809104026020016040519081016040528093929190818152602001838380828437600081840152601f19601f820116905080830192505050505050509192919290505050612ddc565b604051808060200180602001838103835285818151815260200191508051906020019060200280838360005b838110156106e25780820151818401526020810190506106c7565b50505050905001838103825284818151815260200191508051906020019060200280838360005b83811015610724578082015181840152602081019050610709565b5050505090500194505050505060405180910390f35b34801561074657600080fd5b506108146004803603606081101561075d57600080fd5b810190808035906020019064010000000081111561077a57600080fd5b82018360208201111561078c57600080fd5b803590602001918460018302840111640100000000831117156107ae57600080fd5b91908080601f016020809104026020016040519081016040528093929190818152602001838380828437600081840152601f19601f82011690508083019250505050505050919291929080359060200190929190803590602001909291905050506130ae565b005b34801561082257600080fd5b506108dc6004803603602081101561083957600080fd5b810190808035906020019064010000000081111561085657600080fd5b82018360208201111561086857600080fd5b8035906020019184600183028401116401000000008311171561088a57600080fd5b91908080601f016020809104026020016040519081016040528093929190818152602001838380828437600081840152601f19601f820116905080830192505050505050509192919290505050614223565b60405180821515815260200191505060405180910390f35b34801561090057600080fd5b506109ba6004803603602081101561091757600080fd5b810190808035906020019064010000000081111561093457600080fd5b82018360208201111561094657600080fd5b8035906020019184600183028401116401000000008311171561096857600080fd5b91908080601f016020809104026020016040519081016040528093929190818152602001838380828437600081840152601f19601f820116905080830192505050505050509192919290505050614252565b604051808260ff16815260200191505060405180910390f35b6109db6142e2565b005b3480156109e957600080fd5b50610b3a60048036036040811015610a0057600080fd5b8101908080359060200190640100000000811115610a1d57600080fd5b820183602082011115610a2f57600080fd5b80359060200191846001830284011164010000000083111715610a5157600080fd5b91908080601f016020809104026020016040519081016040528093929190818152602001838380828437600081840152601f19601f82011690508083019250505050505050919291929080359060200190640100000000811115610ab457600080fd5b820183602082011115610ac657600080fd5b80359060200191846001830284011164010000000083111715610ae857600080fd5b91908080601f016020809104026020016040519081016040528093929190818152602001838380828437600081840152601f19601f820116905080830192505050505050509192919290505050614414565b60405180821515815260200191505060405180910390f35b348015610b5e57600080fd5b50610c1860048036036020811015610b7557600080fd5b8101908080359060200190640100000000811115610b9257600080fd5b820183602082011115610ba457600080fd5b80359060200191846001830284011164010000000083111715610bc657600080fd5b91908080601f016020809104026020016040519081016040528093929190818152602001838380828437600081840152601f19601f8201169050808301925050505050505091929192905050506144dd565b604051808260ff16815260200191505060405180910390f35b348015610c3d57600080fd5b50610d1760048036036040811015610c5457600080fd5b8101908080359060200190640100000000811115610c7157600080fd5b820183602082011115610c8357600080fd5b80359060200191846001830284011164010000000083111715610ca557600080fd5b91908080601f016020809104026020016040519081016040528093929190818152602001838380828437600081840152601f19601f820116905080830192505050505050509192919290803573ffffffffffffffffffffffffffffffffffffffff1690602001909291905050506145e5565b005b348015610d2557600080fd5b50610de960048036036040811015610d3c57600080fd5b8101908080359060200190640100000000811115610d5957600080fd5b820183602082011115610d6b57600080fd5b80359060200191846001830284011164010000000083111715610d8d57600080fd5b91908080601f016020809104026020016040519081016040528093929190818152602001838380828437600081840152601f19601f82011690508083019250505050505050919291929080359060200190929190505050614802565b005b348015610df757600080fd5b50610ed160048036036080811015610e0e57600080fd5b8101908080359060200190640100000000811115610e2b57600080fd5b820183602082011115610e3d57600080fd5b80359060200191846001830284011164010000000083111715610e5f57600080fd5b91908080601f016020809104026020016040519081016040528093929190818152602001838380828437600081840152601f19601f8201169050808301925050505050505091929192908035151590602001909291908035906020019092919080359060200190929190505050614b57565b005b348015610edf57600080fd5b50610f4360048036036080811015610ef657600080fd5b81019080803560ff1690602001909291908035906020019092919080359060200190929190803573ffffffffffffffffffffffffffffffffffffffff1690602001909291905050506150b2565b005b6060806000610f5384614252565b90506000600160008360ff1660ff1681526020019081526020016000206005015467ffffffffffffffff81118015610f8a57600080fd5b50604051908082528060200260200182016040528015610fb95781602001602082028036833780820191505090505b5090506000600160008460ff1660ff1681526020019081526020016000206005015467ffffffffffffffff81118015610ff157600080fd5b506040519080825280602002602001820160405280156110205781602001602082028036833780820191505090505b5090506000600160008560ff1660ff168152602001908152602001600020600401549050600080600160008760ff1660ff168152602001908152602001600020600301541115611206575b600160008660ff1660ff168152602001908152602001600020600301548211611205578184828151811061109b57fe5b602002602001018181525050600080600160008860ff1660ff16815260200190815260200160002060020160008581526020019081526020016000206003015490505b600160008860ff1660ff168152602001908152602001600020600201600085815260200190815260200160002060040154811161116b57600160008860ff1660ff16815260200190815260200160002060020160008581526020019081526020016000206002016000828152602001908152602001600020600001548201915080806001019150506110de565b8185848151811061117857fe5b602002602001018181525050600160008860ff1660ff1681526020019081526020016000206002016000858152602001908152602001600020600001548414156111c3575050611205565b600160008860ff1660ff16815260200190815260200160002060020160008581526020019081526020016000206000015493508280600101935050505061106b565b5b8383965096505050505050915091565b6000600460003373ffffffffffffffffffffffffffffffffffffffff1673ffffffffffffffffffffffffffffffffffffffff16815260200190815260200160002054905090565b600061126883614252565b9050600073ffffffffffffffffffffffffffffffffffffffff16600160008360ff1660ff16815260200190815260200160002060000160009054906101000a900473ffffffffffffffffffffffffffffffffffffffff1673ffffffffffffffffffffffffffffffffffffffff161415611349576040517f08c379a000000000000000000000000000000000000000000000000000000000815260040180806020018281038252600f8152602001807f616464726573732070726f626c656d000000000000000000000000000000000081525060200191505060405180910390fd5b6000600160008360ff1660ff16815260200190815260200160002060000160009054906101000a900473ffffffffffffffffffffffffffffffffffffffff169050600115158173ffffffffffffffffffffffffffffffffffffffff166323b872dd3330876040518463ffffffff1660e01b8152600401808473ffffffffffffffffffffffffffffffffffffffff1681526020018373ffffffffffffffffffffffffffffffffffffffff1681526020018281526020019350505050602060405180830381600087803b15801561141d57600080fd5b505af1158015611431573d6000803e3d6000fd5b505050506040513d602081101561144757600080fd5b81019080805190602001909291905050501515146114cd576040517f08c379a00000000000000000000000000000000000000000000000000000000081526004018080602001828103825260158152602001807f746f6b656e207472616e73666572206661696c6564000000000000000000000081525060200191505060405180910390fd5b600360003373ffffffffffffffffffffffffffffffffffffffff1673ffffffffffffffffffffffffffffffffffffffff16815260200190815260200160002060008360ff1660ff1681526020019081526020016000205483600360003373ffffffffffffffffffffffffffffffffffffffff1673ffffffffffffffffffffffffffffffffffffffff16815260200190815260200160002060008560ff1660ff168152602001908152602001600020540110156115f1576040517f08c379a00000000000000000000000000000000000000000000000000000000081526004018080602001828103825260208152602001807f746f6b656e62616c616e636561647272657373732b616d6f756e74206661696c81525060200191505060405180910390fd5b82600360003373ffffffffffffffffffffffffffffffffffffffff1673ffffffffffffffffffffffffffffffffffffffff16815260200190815260200160002060008460ff1660ff16815260200190815260200160002060008282540192505081905550828260ff163373ffffffffffffffffffffffffffffffffffffffff167f60a8dd570bac4f900774a3c48ccecdb7cc3af9f470a712c8c75e28a3bfdacd1d426040518082815260200191505060405180910390a450505050565b6000806116ba83614252565b9050600360003373ffffffffffffffffffffffffffffffffffffffff1673ffffffffffffffffffffffffffffffffffffffff16815260200190815260200160002060008260ff1660ff16815260200190815260200160002054915050919050565b600081600460003373ffffffffffffffffffffffffffffffffffffffff1673ffffffffffffffffffffffffffffffffffffffff168152602001908152602001600020540310156117d3576040517f08c379a000000000000000000000000000000000000000000000000000000000815260040180806020018281038252601d8152602001807f596f7520646f6e7420686176652020656e6f7567682062616c616e636500000081525060200191505060405180910390fd5b600081116117e057600080fd5b3373ffffffffffffffffffffffffffffffffffffffff166108fc829081150290604051600060405180830381858888f19350505050158015611826573d6000803e3d6000fd5b5080600460003373ffffffffffffffffffffffffffffffffffffffff1673ffffffffffffffffffffffffffffffffffffffff168152602001908152602001600020600082825403925050819055503373ffffffffffffffffffffffffffffffffffffffff167fd2f895e43f6e6906b546cf654783cd73495a05da537a082de71a72c23816ce098242604051808381526020018281526020019250505060405180910390a250565b60006118d884614252565b90506000806000600160008560ff1660ff168152602001908152602001600020600901541480611924575084600160008560ff1660ff1681526020019081526020016000206007015410155b15611acc5783850291508382101561193b57600080fd5b8482101561194857600080fd5b81600460003373ffffffffffffffffffffffffffffffffffffffff1673ffffffffffffffffffffffffffffffffffffffff16815260200190815260200160002054101561199457600080fd5b600082600460003373ffffffffffffffffffffffffffffffffffffffff1673ffffffffffffffffffffffffffffffffffffffff168152602001908152602001600020540310156119e357600080fd5b81600460003373ffffffffffffffffffffffffffffffffffffffff1673ffffffffffffffffffffffffffffffffffffffff16815260200190815260200160002060008282540392505081905550611a3c83868633612798565b600160008460ff1660ff1681526020019081526020016000206002016000868152602001908152602001600020600401543373ffffffffffffffffffffffffffffffffffffffff168460ff167f1dfb31df529d3c54d9d5c03e8257e5dae437049c2faabd343e223be9b547137f8888604051808381526020018281526020019250505060405180910390a4612790565b6000600160008560ff1660ff168152602001908152602001600020600301549050600085905060005b878311158015611b055750600082115b1561277757600160008760ff1660ff16815260200190815260200160002060060160008481526020019081526020016000206003015490505b600160008760ff1660ff1681526020019081526020016000206006016000848152602001908152602001600020600401548111158015611b7e5750600082115b15612753576000600160008860ff1660ff1681526020019081526020016000206006016000858152602001908152602001600020600201600083815260200190815260200160002060000154905082811161210257838102945084600460003373ffffffffffffffffffffffffffffffffffffffff1673ffffffffffffffffffffffffffffffffffffffff168152602001908152602001600020541015611c2457600080fd5b600460003373ffffffffffffffffffffffffffffffffffffffff1673ffffffffffffffffffffffffffffffffffffffff1681526020019081526020016000205485600460003373ffffffffffffffffffffffffffffffffffffffff1673ffffffffffffffffffffffffffffffffffffffff16815260200190815260200160002054031115611cb157600080fd5b84600460003373ffffffffffffffffffffffffffffffffffffffff1673ffffffffffffffffffffffffffffffffffffffff16815260200190815260200160002060008282540392505081905550600360003373ffffffffffffffffffffffffffffffffffffffff1673ffffffffffffffffffffffffffffffffffffffff16815260200190815260200160002060008860ff1660ff1681526020019081526020016000205481600360003373ffffffffffffffffffffffffffffffffffffffff1673ffffffffffffffffffffffffffffffffffffffff16815260200190815260200160002060008a60ff1660ff16815260200190815260200160002054011015611db957600080fd5b60046000600160008a60ff1660ff1681526020019081526020016000206006016000878152602001908152602001600020600201600085815260200190815260200160002060010160009054906101000a900473ffffffffffffffffffffffffffffffffffffffff1673ffffffffffffffffffffffffffffffffffffffff1673ffffffffffffffffffffffffffffffffffffffff168152602001908152602001600020548560046000600160008c60ff1660ff1681526020019081526020016000206006016000898152602001908152602001600020600201600087815260200190815260200160002060010160009054906101000a900473ffffffffffffffffffffffffffffffffffffffff1673ffffffffffffffffffffffffffffffffffffffff1673ffffffffffffffffffffffffffffffffffffffff16815260200190815260200160002054011015611f0e57600080fd5b8460046000600160008b60ff1660ff1681526020019081526020016000206006016000888152602001908152602001600020600201600086815260200190815260200160002060010160009054906101000a900473ffffffffffffffffffffffffffffffffffffffff1673ffffffffffffffffffffffffffffffffffffffff1673ffffffffffffffffffffffffffffffffffffffff1681526020019081526020016000206000828254019250508190555080600360003373ffffffffffffffffffffffffffffffffffffffff1673ffffffffffffffffffffffffffffffffffffffff16815260200190815260200160002060008960ff1660ff168152602001908152602001600020600082825401925050819055506000600160008960ff1660ff1681526020019081526020016000206006016000868152602001908152602001600020600201600084815260200190815260200160002060000181905550600160008860ff1660ff1681526020019081526020016000206006016000858152602001908152602001600020600301600081548092919060010191905055508660ff167fcbfa5edcd918ef1ec42746c71ac83c456f37330c83a22e44d6cfdca22d56471082868560405180848152602001838152602001828152602001935050505060405180910390a2808303925061253d565b82600160008960ff1660ff16815260200190815260200160002060060160008681526020019081526020016000206002016000848152602001908152602001600020600001541161215257600080fd5b8284029550600460003373ffffffffffffffffffffffffffffffffffffffff1673ffffffffffffffffffffffffffffffffffffffff1681526020019081526020016000205486600460003373ffffffffffffffffffffffffffffffffffffffff1673ffffffffffffffffffffffffffffffffffffffff168152602001908152602001600020540311156121e457600080fd5b85600460003373ffffffffffffffffffffffffffffffffffffffff1673ffffffffffffffffffffffffffffffffffffffff1681526020019081526020016000206000828254039250508190555060046000600160008a60ff1660ff1681526020019081526020016000206006016000878152602001908152602001600020600201600085815260200190815260200160002060010160009054906101000a900473ffffffffffffffffffffffffffffffffffffffff1673ffffffffffffffffffffffffffffffffffffffff1673ffffffffffffffffffffffffffffffffffffffff168152602001908152602001600020548660046000600160008c60ff1660ff1681526020019081526020016000206006016000898152602001908152602001600020600201600087815260200190815260200160002060010160009054906101000a900473ffffffffffffffffffffffffffffffffffffffff1673ffffffffffffffffffffffffffffffffffffffff1673ffffffffffffffffffffffffffffffffffffffff1681526020019081526020016000205401101561238657600080fd5b82600160008960ff1660ff16815260200190815260200160002060060160008681526020019081526020016000206002016000848152602001908152602001600020600001600082825403925050819055508560046000600160008b60ff1660ff1681526020019081526020016000206006016000888152602001908152602001600020600201600086815260200190815260200160002060010160009054906101000a900473ffffffffffffffffffffffffffffffffffffffff1673ffffffffffffffffffffffffffffffffffffffff1673ffffffffffffffffffffffffffffffffffffffff1681526020019081526020016000206000828254019250508190555082600360003373ffffffffffffffffffffffffffffffffffffffff1673ffffffffffffffffffffffffffffffffffffffff16815260200190815260200160002060008960ff1660ff16815260200190815260200160002060008282540192505081905550600092508660ff167fcbfa5edcd918ef1ec42746c71ac83c456f37330c83a22e44d6cfdca22d56471084868560405180848152602001838152602001828152602001935050505060405180910390a25b600160008860ff1660ff168152602001908152602001600020600601600085815260200190815260200160002060040154821480156125c057506000600160008960ff1660ff1681526020019081526020016000206006016000868152602001908152602001600020600201600084815260200190815260200160002060000154145b1561274557600160008860ff1660ff1681526020019081526020016000206009016000815480929190600190039190505550600160008860ff1660ff16815260200190815260200160002060060160008581526020019081526020016000206000015484148061266057506000600160008960ff1660ff168152602001908152602001600020600601600086815260200190815260200160002060000154145b1561268c576000600160008960ff1660ff16815260200190815260200160002060070181905550612744565b600160008860ff1660ff168152602001908152602001600020600601600085815260200190815260200160002060000154600160008960ff1660ff168152602001908152602001600020600701819055506000600160008960ff1660ff1681526020019081526020016000206006016000600160008b60ff1660ff1681526020019081526020016000206006016000888152602001908152602001600020600001548152602001908152602001600020600101819055505b5b818060010192505050611b3e565b600160008760ff1660ff168152602001908152602001600020600701549250611af5565b600082111561278c5761278b8989846118cd565b5b5050505b505050505050565b600160008560ff1660ff16815260200190815260200160002060020160008481526020019081526020016000206004016000815480929190600101919050555060405180604001604052808381526020018273ffffffffffffffffffffffffffffffffffffffff16815250600160008660ff1660ff16815260200190815260200160002060020160008581526020019081526020016000206002016000600160008860ff1660ff16815260200190815260200160002060020160008781526020019081526020016000206004015481526020019081526020016000206000820151816000015560208201518160010160006101000a81548173ffffffffffffffffffffffffffffffffffffffff021916908373ffffffffffffffffffffffffffffffffffffffff16021790555090505060018060008660ff1660ff1681526020019081526020016000206002016000858152602001908152602001600020600401541415612dd65760018060008660ff1660ff168152602001908152602001600020600201600085815260200190815260200160002060030181905550600160008560ff1660ff168152602001908152602001600020600501600081548092919060010191905055506000600160008660ff1660ff1681526020019081526020016000206003015490506000600160008760ff1660ff16815260200190815260200160002060040154905060008114806129b157508481115b15612b17576000821415612a505784600160008860ff1660ff1681526020019081526020016000206003018190555084600160008860ff1660ff1681526020019081526020016000206002016000878152602001908152602001600020600001819055506000600160008860ff1660ff168152602001908152602001600020600201600087815260200190815260200160002060010181905550612af1565b84600160008860ff1660ff16815260200190815260200160002060020160008381526020019081526020016000206001018190555080600160008860ff1660ff1681526020019081526020016000206002016000878152602001908152602001600020600001819055506000600160008860ff1660ff1681526020019081526020016000206002016000878152602001908152602001600020600101819055505b84600160008860ff1660ff16815260200190815260200160002060040181905550612dd3565b84821015612be45784600160008860ff1660ff16815260200190815260200160002060020160008481526020019081526020016000206000018190555084600160008860ff1660ff16815260200190815260200160002060020160008781526020019081526020016000206000018190555081600160008860ff1660ff16815260200190815260200160002060020160008781526020019081526020016000206001018190555084600160008860ff1660ff16815260200190815260200160002060030181905550612dd2565b6000600160008860ff1660ff16815260200190815260200160002060030154905060005b600082118015612c16575080155b15612dcf578682108015612c59575086600160008a60ff1660ff168152602001908152602001600020600201600084815260200190815260200160002060000154115b15612d975781600160008a60ff1660ff168152602001908152602001600020600201600089815260200190815260200160002060010181905550600160008960ff1660ff168152602001908152602001600020600201600083815260200190815260200160002060000154600160008a60ff1660ff16815260200190815260200160002060020160008981526020019081526020016000206000018190555086600160008a60ff1660ff1681526020019081526020016000206002016000600160008c60ff1660ff16815260200190815260200160002060020160008681526020019081526020016000206000015481526020019081526020016000206001018190555086600160008a60ff1660ff168152602001908152602001600020600201600084815260200190815260200160002060000181905550600190505b600160008960ff1660ff1681526020019081526020016000206002016000838152602001908152602001600020600101549150612c08565b50505b5b50505b50505050565b6060806000612dea84614252565b90506000600160008360ff1660ff1681526020019081526020016000206009015467ffffffffffffffff81118015612e2157600080fd5b50604051908082528060200260200182016040528015612e505781602001602082028036833780820191505090505b5090506000600160008460ff1660ff1681526020019081526020016000206009015467ffffffffffffffff81118015612e8857600080fd5b50604051908082528060200260200182016040528015612eb75781602001602082028036833780820191505090505b5090506000600160008560ff1660ff168152602001908152602001600020600701549050600080600160008760ff1660ff16815260200190815260200160002060070154111561309e575b600160008660ff1660ff16815260200190815260200160002060080154821161309d5781848281518110612f3257fe5b602002602001018181525050600080600160008860ff1660ff16815260200190815260200160002060060160008581526020019081526020016000206003015490505b600160008860ff1660ff168152602001908152602001600020600601600085815260200190815260200160002060040154811161300257600160008860ff1660ff1681526020019081526020016000206006016000858152602001908152602001600020600201600082815260200190815260200160002060000154820191508080600101915050612f75565b8185848151811061300f57fe5b6020026020010181815250506000600160008960ff1660ff168152602001908152602001600020600601600086815260200190815260200160002060000154141561305b57505061309d565b600160008860ff1660ff168152602001908152602001600020600601600085815260200190815260200160002060000154935082806001019350505050612f02565b5b8383965096505050505050915091565b60006130b984614252565b90506000806000600160008560ff1660ff168152602001908152602001600020600501541480613105575084600160008560ff1660ff1681526020019081526020016000206003015411155b613177576040517f08c379a00000000000000000000000000000000000000000000000000000000081526004018080602001828103825260128152602001807f696620636f6e646974696f6e206572726f72000000000000000000000000000081525060200191505060405180910390fd5b6000600160008560ff1660ff1681526020019081526020016000206005015414806131be575084600160008560ff1660ff1681526020019081526020016000206003015411155b156135ee57838502915084821015613221576040517f08c379a000000000000000000000000000000000000000000000000000000000815260040180806020018281038252602481526020018061579a6024913960400191505060405180910390fd5b8382101561327a576040517f08c379a000000000000000000000000000000000000000000000000000000000815260040180806020018281038252602481526020018061579a6024913960400191505060405180910390fd5b83600360003373ffffffffffffffffffffffffffffffffffffffff1673ffffffffffffffffffffffffffffffffffffffff16815260200190815260200160002060008560ff1660ff168152602001908152602001600020541015613346576040517f08c379a00000000000000000000000000000000000000000000000000000000081526004018080602001828103825260128152602001807f70726f626c656d207769746820546f6b656e000000000000000000000000000081525060200191505060405180910390fd5b600084600360003373ffffffffffffffffffffffffffffffffffffffff1673ffffffffffffffffffffffffffffffffffffffff16815260200190815260200160002060008660ff1660ff16815260200190815260200160002054031015613415576040517f08c379a00000000000000000000000000000000000000000000000000000000081526004018080602001828103825260128152602001807f70726f626c656d207769746820546f6b656e000000000000000000000000000081525060200191505060405180910390fd5b600460003373ffffffffffffffffffffffffffffffffffffffff1673ffffffffffffffffffffffffffffffffffffffff1681526020019081526020016000205482600460003373ffffffffffffffffffffffffffffffffffffffff1673ffffffffffffffffffffffffffffffffffffffff168152602001908152602001600020540110156134ee576040517f08c379a00000000000000000000000000000000000000000000000000000000081526004018080602001828103825260228152602001806157786022913960400191505060405180910390fd5b83600360003373ffffffffffffffffffffffffffffffffffffffff1673ffffffffffffffffffffffffffffffffffffffff16815260200190815260200160002060008560ff1660ff1681526020019081526020016000206000828254039250508190555061355e838686336150b2565b600160008460ff1660ff1681526020019081526020016000206006016000868152602001908152602001600020600401543373ffffffffffffffffffffffffffffffffffffffff168460ff167fd52af767b01cf9b76345dc9166bf9391149aa62d6cd82ef3e5a6a029d8e4f5098888604051808381526020018281526020019250505060405180910390a461421b565b6000600160008560ff1660ff168152602001908152602001600020600301549050600085905060005b8783101580156136275750600082115b1561420257600160008760ff1660ff16815260200190815260200160002060020160008481526020019081526020016000206003015490505b600160008760ff1660ff16815260200190815260200160002060020160008481526020019081526020016000206004015481111580156136a05750600082115b156141de576000600160008860ff1660ff16815260200190815260200160002060020160008581526020019081526020016000206002016000838152602001908152602001600020600001549050808310613c8e57838102945080600360003373ffffffffffffffffffffffffffffffffffffffff1673ffffffffffffffffffffffffffffffffffffffff16815260200190815260200160002060008960ff1660ff16815260200190815260200160002054101561375d57600080fd5b80600360003373ffffffffffffffffffffffffffffffffffffffff1673ffffffffffffffffffffffffffffffffffffffff16815260200190815260200160002060008960ff1660ff16815260200190815260200160002060008282540392505081905550600081600360003373ffffffffffffffffffffffffffffffffffffffff1673ffffffffffffffffffffffffffffffffffffffff16815260200190815260200160002060008a60ff1660ff1681526020019081526020016000205403101561382757600080fd5b60036000600160008a60ff1660ff16815260200190815260200160002060020160008c8152602001908152602001600020600201600085815260200190815260200160002060010160009054906101000a900473ffffffffffffffffffffffffffffffffffffffff1673ffffffffffffffffffffffffffffffffffffffff1673ffffffffffffffffffffffffffffffffffffffff16815260200190815260200160002060008860ff1660ff168152602001908152602001600020548160036000600160008c60ff1660ff16815260200190815260200160002060020160008e8152602001908152602001600020600201600087815260200190815260200160002060010160009054906101000a900473ffffffffffffffffffffffffffffffffffffffff1673ffffffffffffffffffffffffffffffffffffffff1673ffffffffffffffffffffffffffffffffffffffff16815260200190815260200160002060008a60ff1660ff1681526020019081526020016000205401116139a957600080fd5b600460003373ffffffffffffffffffffffffffffffffffffffff1673ffffffffffffffffffffffffffffffffffffffff1681526020019081526020016000205485600460003373ffffffffffffffffffffffffffffffffffffffff1673ffffffffffffffffffffffffffffffffffffffff16815260200190815260200160002054011015613a3657600080fd5b80600360003373ffffffffffffffffffffffffffffffffffffffff1673ffffffffffffffffffffffffffffffffffffffff16815260200190815260200160002060008960ff1660ff168152602001908152602001600020600082825403925050819055508060036000600160008b60ff1660ff16815260200190815260200160002060020160008d8152602001908152602001600020600201600086815260200190815260200160002060010160009054906101000a900473ffffffffffffffffffffffffffffffffffffffff1673ffffffffffffffffffffffffffffffffffffffff1673ffffffffffffffffffffffffffffffffffffffff16815260200190815260200160002060008960ff1660ff168152602001908152602001600020600082825401925050819055506000600160008960ff1660ff16815260200190815260200160002060020160008b815260200190815260200160002060020160008481526020019081526020016000206000018190555084600460003373ffffffffffffffffffffffffffffffffffffffff1673ffffffffffffffffffffffffffffffffffffffff16815260200190815260200160002060008282540192505081905550600160008860ff1660ff1681526020019081526020016000206002016000858152602001908152602001600020600301600081548092919060010191905055508660ff167fcbfa5edcd918ef1ec42746c71ac83c456f37330c83a22e44d6cfdca22d56471082868560405180848152602001838152602001828152602001935050505060405180910390a28083039250613fad565b600083820311613c9d57600080fd5b838102945082600360003373ffffffffffffffffffffffffffffffffffffffff1673ffffffffffffffffffffffffffffffffffffffff16815260200190815260200160002060008960ff1660ff168152602001908152602001600020541015613d0557600080fd5b82600360003373ffffffffffffffffffffffffffffffffffffffff1673ffffffffffffffffffffffffffffffffffffffff16815260200190815260200160002060008960ff1660ff16815260200190815260200160002060008282540392505081905550600460003373ffffffffffffffffffffffffffffffffffffffff1673ffffffffffffffffffffffffffffffffffffffff1681526020019081526020016000205485600460003373ffffffffffffffffffffffffffffffffffffffff1673ffffffffffffffffffffffffffffffffffffffff16815260200190815260200160002054011015613df657600080fd5b82600160008960ff1660ff16815260200190815260200160002060020160008b815260200190815260200160002060020160008481526020019081526020016000206000016000828254039250508190555084600460003373ffffffffffffffffffffffffffffffffffffffff1673ffffffffffffffffffffffffffffffffffffffff168152602001908152602001600020600082825401925050819055508460036000600160008b60ff1660ff16815260200190815260200160002060020160008d8152602001908152602001600020600201600086815260200190815260200160002060010160009054906101000a900473ffffffffffffffffffffffffffffffffffffffff1673ffffffffffffffffffffffffffffffffffffffff1673ffffffffffffffffffffffffffffffffffffffff16815260200190815260200160002060008960ff1660ff168152602001908152602001600020600082825401925050819055508660ff167fcbfa5edcd918ef1ec42746c71ac83c456f37330c83a22e44d6cfdca22d56471082868560405180848152602001838152602001828152602001935050505060405180910390a2600092505b600160008860ff1660ff1681526020019081526020016000206002016000858152602001908152602001600020600401548214801561403057506000600160008960ff1660ff16815260200190815260200160002060020160008b8152602001908152602001600020600201600084815260200190815260200160002060000154145b156141d057600160008860ff1660ff1681526020019081526020016000206005016000815480929190600190039190505550600160008860ff1660ff1681526020019081526020016000206002016000858152602001908152602001600020600101548414806140d057506000600160008960ff1660ff168152602001908152602001600020600201600086815260200190815260200160002060010154145b156140fc576000600160008960ff1660ff168152602001908152602001600020600301819055506141cf565b600160008860ff1660ff168152602001908152602001600020600201600085815260200190815260200160002060010154600160008960ff1660ff16815260200190815260200160002060030181905550600160008860ff1660ff16815260200190815260200160002060030154600160008960ff1660ff1681526020019081526020016000206002016000600160008b60ff1660ff1681526020019081526020016000206002016000888152602001908152602001600020600101548152602001908152602001600020600001819055505b5b818060010192505050613660565b600160008760ff1660ff168152602001908152602001600020600301549250613617565b6000821115614217576142168989896130ae565b5b5050505b505050505050565b60008061422f836144dd565b60ff169050600081141561424757600091505061424d565b60019150505b919050565b60008061425e836144dd565b905060008160ff16116142d9576040517f08c379a00000000000000000000000000000000000000000000000000000000081526004018080602001828103825260148152602001807f496e646578206973206c657373207468616e203000000000000000000000000081525060200191505060405180910390fd5b80915050919050565b600460003373ffffffffffffffffffffffffffffffffffffffff1673ffffffffffffffffffffffffffffffffffffffff1681526020019081526020016000205434600460003373ffffffffffffffffffffffffffffffffffffffff1673ffffffffffffffffffffffffffffffffffffffff1681526020019081526020016000205401101561436f57600080fd5b34600460003373ffffffffffffffffffffffffffffffffffffffff1673ffffffffffffffffffffffffffffffffffffffff168152602001908152602001600020600082825401925050819055503373ffffffffffffffffffffffffffffffffffffffff167f5aa1660aded6f1c42225963051e4b8ad5776f3b2e079ca705bc1670e0b0580113442604051808381526020018281526020019250505060405180910390a2565b60008083905060008390508051825114614433576000925050506144d7565b60005b82518110156144cf5781818151811061444b57fe5b602001015160f81c60f81b7effffffffffffffffffffffffffffffffffffffffffffffffffffffffffffff191683828151811061448457fe5b602001015160f81c60f81b7effffffffffffffffffffffffffffffffffffffffffffffffffffffffffffff1916146144c257600093505050506144d7565b8080600101915050614436565b506001925050505b92915050565b600080600090505b600260009054906101000a900460ff1660ff168160ff16116145da576145bf600160008360ff1660ff1681526020019081526020016000206001018054600181600116156101000203166002900480601f0160208091040260200160405190810160405280929190818152602001828054600181600116156101000203166002900480156145b45780601f10614589576101008083540402835291602001916145b4565b820191906000526020600020905b81548152906001019060200180831161459757829003601f168201915b505050505084614414565b156145cd57809150506145e0565b80806001019150506144e5565b50600090505b919050565b60008054906101000a900473ffffffffffffffffffffffffffffffffffffffff1673ffffffffffffffffffffffffffffffffffffffff163373ffffffffffffffffffffffffffffffffffffffff16146146a6576040517f08c379a00000000000000000000000000000000000000000000000000000000081526004018080602001828103825260098152602001807f4e6f74206f776e6572000000000000000000000000000000000000000000000081525060200191505060405180910390fd5b6146af82614223565b15614722576040517f08c379a000000000000000000000000000000000000000000000000000000000815260040180806020018281038252600f8152602001807f416c72656164792068617665206974000000000000000000000000000000000081525060200191505060405180910390fd5b6002600081819054906101000a900460ff168092919060010191906101000a81548160ff021916908360ff160217905550508160016000600260009054906101000a900460ff1660ff1660ff16815260200190815260200160002060010190805190602001906147939291906156cc565b508060016000600260009054906101000a900460ff1660ff1660ff16815260200190815260200160002060000160006101000a81548173ffffffffffffffffffffffffffffffffffffffff021916908373ffffffffffffffffffffffffffffffffffffffff1602179055505050565b600061480d83614252565b9050600073ffffffffffffffffffffffffffffffffffffffff16600160008360ff1660ff16815260200190815260200160002060000160009054906101000a900473ffffffffffffffffffffffffffffffffffffffff1673ffffffffffffffffffffffffffffffffffffffff16141561488557600080fd5b6000600160008360ff1660ff16815260200190815260200160002060000160009054906101000a900473ffffffffffffffffffffffffffffffffffffffff1690506000600360003373ffffffffffffffffffffffffffffffffffffffff1673ffffffffffffffffffffffffffffffffffffffff16815260200190815260200160002060008460ff1660ff16815260200190815260200160002054101561492a57600080fd5b600360003373ffffffffffffffffffffffffffffffffffffffff1673ffffffffffffffffffffffffffffffffffffffff16815260200190815260200160002060008360ff1660ff1681526020019081526020016000205483600360003373ffffffffffffffffffffffffffffffffffffffff1673ffffffffffffffffffffffffffffffffffffffff16815260200190815260200160002060008560ff1660ff168152602001908152602001600020540311156149e557600080fd5b8073ffffffffffffffffffffffffffffffffffffffff1663a9059cbb33856040518363ffffffff1660e01b8152600401808373ffffffffffffffffffffffffffffffffffffffff16815260200182815260200192505050602060405180830381600087803b158015614a5657600080fd5b505af1158015614a6a573d6000803e3d6000fd5b505050506040513d6020811015614a8057600080fd5b8101908080519060200190929190505050614a9a57600080fd5b82600360003373ffffffffffffffffffffffffffffffffffffffff1673ffffffffffffffffffffffffffffffffffffffff16815260200190815260200160002060008460ff1660ff168152602001908152602001600020600082825403925050819055508160ff16833373ffffffffffffffffffffffffffffffffffffffff167ff6e804e6deeba9f95fe9638359fe3153da88ac53614bc0f42ef6151bf2d57c40426040518082815260200191505060405180910390a450505050565b6000614b6285614252565b90508315614e62573373ffffffffffffffffffffffffffffffffffffffff16600160008360ff1660ff1681526020019081526020016000206006016000858152602001908152602001600020600201600084815260200190815260200160002060010160009054906101000a900473ffffffffffffffffffffffffffffffffffffffff1673ffffffffffffffffffffffffffffffffffffffff1614614c6f576040517f08c379a00000000000000000000000000000000000000000000000000000000081526004018080602001828103825260128152602001807f596f7572206e6f7420746865206f776e6572000000000000000000000000000081525060200191505060405180910390fd5b6000600160008360ff1660ff16815260200190815260200160002060060160008581526020019081526020016000206002016000848152602001908152602001600020600001549050600360003373ffffffffffffffffffffffffffffffffffffffff1673ffffffffffffffffffffffffffffffffffffffff16815260200190815260200160002060008360ff1660ff16815260200190815260200160002054600360003373ffffffffffffffffffffffffffffffffffffffff1673ffffffffffffffffffffffffffffffffffffffff16815260200190815260200160002060008460ff1660ff16815260200190815260200160002054820114614d7257600080fd5b80600360003373ffffffffffffffffffffffffffffffffffffffff1673ffffffffffffffffffffffffffffffffffffffff16815260200190815260200160002060008460ff1660ff168152602001908152602001600020600082825401925050819055506000600160008460ff1660ff1681526020019081526020016000206006016000868152602001908152602001600020600201600085815260200190815260200160002060000181905550838260ff167f5e685d81ded00f532fcfa9b3cb10f8c1f2bcaa5602f991d9761b8ef643d72b3b856040518082815260200191505060405180910390a3506150ab565b3373ffffffffffffffffffffffffffffffffffffffff16600160008360ff1660ff1681526020019081526020016000206002016000858152602001908152602001600020600201600084815260200190815260200160002060010160009054906101000a900473ffffffffffffffffffffffffffffffffffffffff1673ffffffffffffffffffffffffffffffffffffffff1614614efe57600080fd5b600083600160008460ff1660ff1681526020019081526020016000206002016000868152602001908152602001600020600201600085815260200190815260200160002060000154029050600460003373ffffffffffffffffffffffffffffffffffffffff1673ffffffffffffffffffffffffffffffffffffffff1681526020019081526020016000205481600460003373ffffffffffffffffffffffffffffffffffffffff1673ffffffffffffffffffffffffffffffffffffffff16815260200190815260200160002054011015614fd657600080fd5b80600460003373ffffffffffffffffffffffffffffffffffffffff1673ffffffffffffffffffffffffffffffffffffffff168152602001908152602001600020600082825401925050819055506000600160008460ff1660ff1681526020019081526020016000206002016000868152602001908152602001600020600201600085815260200190815260200160002060000181905550838260ff167f289251686b06b9778a803aed6fe3da1bf9197f7d3bb167f07b870c187951f4b5856040518082815260200191505060405180910390a3505b5050505050565b600160008560ff1660ff16815260200190815260200160002060060160008481526020019081526020016000206004016000815480929190600101919050555060405180604001604052808381526020018273ffffffffffffffffffffffffffffffffffffffff16815250600160008660ff1660ff16815260200190815260200160002060060160008581526020019081526020016000206002016000600160008860ff1660ff16815260200190815260200160002060020160008781526020019081526020016000206004015481526020019081526020016000206000820151816000015560208201518160010160006101000a81548173ffffffffffffffffffffffffffffffffffffffff021916908373ffffffffffffffffffffffffffffffffffffffff16021790555090505060018060008660ff1660ff16815260200190815260200160002060060160008581526020019081526020016000206004015414156156c65760018060008660ff1660ff1681526020019081526020016000206006016000858152602001908152602001600020600301819055506000600160008660ff1660ff1681526020019081526020016000206007015490506000600160008760ff1660ff168152602001908152602001600020600801549050600081148061529f57508481105b1561540657600082141561533f5784600160008860ff1660ff168152602001908152602001600020600701819055506000600160008860ff1660ff1681526020019081526020016000206006016000878152602001908152602001600020600001819055506000600160008860ff1660ff1681526020019081526020016000206006016000878152602001908152602001600020600101819055506153e0565b80600160008860ff1660ff1681526020019081526020016000206006016000878152602001908152602001600020600101819055506000600160008860ff1660ff16815260200190815260200160002060060160008781526020019081526020016000206000018190555084600160008860ff1660ff1681526020019081526020016000206006016000838152602001908152602001600020600001819055505b84600160008860ff1660ff168152602001908152602001600020600801819055506156c3565b848211156154d45784600160008860ff1660ff1681526020019081526020016000206006016000848152602001908152602001600020600101819055506000600160008860ff1660ff16815260200190815260200160002060060160008781526020019081526020016000206001018190555081600160008860ff1660ff16815260200190815260200160002060060160008781526020019081526020016000206000018190555084600160008860ff1660ff168152602001908152602001600020600701819055506156c2565b6000600160008860ff1660ff16815260200190815260200160002060070154905060005b600082118015615506575080155b156156bf5786600160008a60ff1660ff16815260200190815260200160002060060160008481526020019081526020016000206000015411801561554957508187115b1561568757600160008960ff1660ff168152602001908152602001600020600601600083815260200190815260200160002060000154600160008a60ff1660ff16815260200190815260200160002060060160008981526020019081526020016000206000018190555081600160008a60ff1660ff16815260200190815260200160002060060160008981526020019081526020016000206001018190555086600160008a60ff1660ff16815260200190815260200160002060060160008481526020019081526020016000206000018190555086600160008a60ff1660ff1681526020019081526020016000206006016000600160008c60ff1660ff168152602001908152602001600020600601600086815260200190815260200160002060000154815260200190815260200160002060010181905550600190505b600160008960ff1660ff16815260200190815260200160002060060160008381526020019081526020016000206000015491506154f8565b50505b5b50505b50505050565b828054600181600116156101000203166002900490600052602060002090601f0160209004810192826157025760008555615749565b82601f1061571b57805160ff1916838001178555615749565b82800160010185558215615749579182015b8281111561574857825182559160200191906001019061572d565b5b509050615756919061575a565b5090565b5b8082111561577357600081600090555060010161575b565b509056fe70726f626c656d20776974682062616c616e636565746865726e656365737361727970726f626c656d207769746820416d6f756e74496e45746865725f6e6563657373617279a26469706673582212207ff572a785c6e86567ec3c88b07c9e112537d4fcd9af15487b5a2124ce64a3b664736f6c63430007060033",
  "immutableReferences": {},
  "source": "pragma solidity >=0.6.0 <0.8.0;\r\n\r\nimport \"./Ownable.sol\";\r\nimport \"./MyToken.sol\";\r\nimport \"../client/node_modules/@openzeppelin/contracts/token/ERC20/ERC20.SOL\";\r\ncontract Exchange is Owner{\r\n\r\n  constructor(uint256 initial) public{\r\n\r\n  }\r\n    struct offer{\r\n\r\n        uint amount;\r\n        address who;\r\n\r\n    }\r\n    struct orderBook{\r\n        uint higherPrice;\r\n        uint lowerPrice;\r\n        mapping(uint => offer) offers;\r\n        uint offer_key;\r\n        uint offer_length;\r\n\r\n    }\r\n    struct Token{\r\n\r\n        address tokenContract;\r\n        string symbolName;\r\n\r\n        mapping(uint =>orderBook) buyBook;\r\n        uint curBuyPrice;\r\n        uint lowestBuyprice;\r\n        uint amountBuyPrice;\r\n\r\n        mapping(uint =>orderBook) sellBook;\r\n        uint curSellPrice;\r\n        uint highestSellprice;\r\n        uint amountSellPrice;\r\n\r\n    }\r\n\r\n    mapping (uint8=>Token) token;\r\n    uint8 symbolNameIndex;\r\n\r\n    mapping (address=>mapping(uint8 =>uint)) TokenBalanceAddress;\r\n    mapping(address =>uint) balanceEtherAddress;\r\n\r\n\r\n    ///Events  FOR WITHDRAWAL AND DEPOSITS///\r\n\r\n    event DepositTokenEmit(address indexed _from,uint indexed _amount,uint indexed _symbolindex,uint _timestamp);\r\n    event WithdrawTokenEmit(address indexed _To,uint indexed _amount,uint indexed _symbolindex,uint _timestamp);\r\n    event DepositEtherEmit(address indexed _from,uint _amount,uint _timestamp);\r\n    event WithEtherEmit(address indexed _To,uint _amount,uint _timestamp);\r\n    //event for orders//\r\n    event LimtBuyOrderCreated(int indexed index,uint  _priceinwei,uint  _amounttoken,address indexed who,uint indexed offerlength);\r\n    event LimitSellOrderCreated(int indexed index,uint _priceinwei,uint _amounttoken,address indexed who, uint indexed offerlength);\r\n    event SellOrderCancelled(int indexed index,uint indexed _priceinwei,uint _offerkey);\r\n    event BuyOrderCancelled(int indexed index,uint indexed _priceinwei,uint _offerkey);\r\n    event SellOrderFulfilled(uint indexed _symbolIndex, uint _amount, uint _priceInWei, uint _orderKey);\r\n    /////////////////////////\r\n    //Deposit and Withdraw//\r\n    ///////////////////////\r\n\r\n    function depositEther() public payable{\r\n        require(balanceEtherAddress[msg.sender]+msg.value>=balanceEtherAddress[msg.sender]);\r\n        balanceEtherAddress[msg.sender]+=msg.value;\r\n        emit DepositEtherEmit(msg.sender,msg.value,block.timestamp);\r\n\r\n    }\r\n\r\n    function withdrawEther(uint amountInWei) public{\r\n            require((balanceEtherAddress[msg.sender]-amountInWei)>=0,\"You dont have  enough balance\");\r\n            require(amountInWei>0);\r\n            (msg.sender).transfer(amountInWei);\r\n            balanceEtherAddress[msg.sender]-=amountInWei;\r\n            WithEtherEmit(msg.sender,amountInWei,block.timestamp);\r\n    }\r\n\r\n    function getEthBalanceInWei() public view returns(uint256){\r\n            return balanceEtherAddress[msg.sender];\r\n        \r\n    }\r\n\r\n\r\n    ////////////////////////\r\n    //Token Management/////\r\n    //////////////////////\r\n    function addToken(string memory symbolName,address erc20TokenAddress) public onlyOwner{\r\n        require(!hasToken(symbolName),\"Already have it\");\r\n        symbolNameIndex++;\r\n        token[symbolNameIndex].symbolName=symbolName;\r\n        token[symbolNameIndex].tokenContract=erc20TokenAddress;\r\n\r\n    }\r\n    function hasToken(string memory symbolName) public view  returns(bool){\r\n        uint index = getsymbolIndex(symbolName);\r\n        if(index==0){\r\n            return false;\r\n        }\r\n\r\n        return true;\r\n\r\n    }\r\n\r\n    function getsymbolIndex(string memory symbolName) public view returns(uint8){\r\n\r\n        for(uint8 i=0;i<=symbolNameIndex;i++)\r\n        {\r\n            if(stringEqual(token[i].symbolName,symbolName)){\r\n                return i;\r\n            }\r\n        }\r\n\r\n        return 0;\r\n    }\r\n\r\n    function getSymbolIndexOrThrow(string memory symbol) public view returns(uint8){\r\n        uint8 Index=getsymbolIndex(symbol);\r\n        require(Index>0,\"Index is less than 0\");\r\n        return(Index);\r\n    }\r\n    //////////////////////////\r\n    ///STRING COMPARISON/////\r\n    ////////////////////////\r\n    function stringEqual(string memory _a,string memory _b) public view returns(bool){\r\n        bytes memory a= bytes(_a);\r\n        bytes  memory b=bytes(_b);\r\n        if(a.length!=b.length){\r\n            return false;\r\n        }\r\n\r\n        for(uint i=0;i<a.length;i++){\r\n            if(a[i]!=b[i]){\r\n                return false;\r\n            }\r\n        }\r\n\r\n        return true;\r\n    }\r\n    ///////////////////////////\r\n    ///deposit and Withdraw////\r\n    //////////////////////////\r\n    function depositToken(string memory symbolName,uint amount) public{\r\n        uint8 symbolNameIndex=getSymbolIndexOrThrow(symbolName);\r\n        require(token[symbolNameIndex].tokenContract!=address(0),\"address problem\");\r\n        ERC20 token=ERC20(token[symbolNameIndex].tokenContract);\r\n        require(token.transferFrom(msg.sender,address(this),amount)==true,\"token transfer failed\");\r\n        require(TokenBalanceAddress[msg.sender][symbolNameIndex]+amount>=TokenBalanceAddress[msg.sender][symbolNameIndex],\"tokenbalanceadrresss+amount fail\");\r\n        TokenBalanceAddress[msg.sender][symbolNameIndex]+=amount;\r\n        emit DepositTokenEmit(msg.sender,symbolNameIndex,amount,block.timestamp);\r\n        \r\n\r\n    }\r\n    function withToken(string memory symbolName,uint amount ) public {\r\n         uint8 symbolNameIndex=getSymbolIndexOrThrow(symbolName);\r\n        require(token[symbolNameIndex].tokenContract!=address(0));\r\n        ERC20 token=ERC20(token[symbolNameIndex].tokenContract);\r\n        require(TokenBalanceAddress[msg.sender][symbolNameIndex]>=0);\r\n        require(TokenBalanceAddress[msg.sender][symbolNameIndex]-amount<=TokenBalanceAddress[msg.sender][symbolNameIndex]);\r\n        require(token.transfer(msg.sender,amount));\r\n        TokenBalanceAddress[msg.sender][symbolNameIndex]-=amount;\r\n        emit WithdrawTokenEmit(msg.sender,amount,symbolNameIndex,block.timestamp);\r\n\r\n    }\r\n    function getBalance(string memory symbolName) view public  returns(uint){\r\n         uint8 symbolNameIndex=getSymbolIndexOrThrow(symbolName);\r\n\r\n        return TokenBalanceAddress[msg.sender][(symbolNameIndex)];\r\n\r\n    }\r\n\r\n\r\n    /////////////////////////\r\n    //ORDER BOOK -BID ORDER//\r\n    ////////////////////////\r\n    function getBuyOrderBook(string memory symbolName) view public  returns(uint[] memory ,uint[] memory )\r\n    {\r\n        uint8 tokenNameIndex = getSymbolIndexOrThrow(symbolName);\r\n        uint[] memory arrPricesBuy = new uint[](token[tokenNameIndex].amountBuyPrice);\r\n        uint[] memory arrVolumesBuy = new uint[](token[tokenNameIndex].amountBuyPrice);\r\n\r\n        uint whilePrice = token[tokenNameIndex].lowestBuyprice;\r\n        uint counter = 0;\r\n        if (token[tokenNameIndex].curBuyPrice > 0) {\r\n            while (whilePrice <= token[tokenNameIndex].curBuyPrice) {\r\n                arrPricesBuy[counter] = whilePrice;\r\n                uint volumeAtPrice = 0;\r\n                uint offers_key = 0;\r\n\r\n                offers_key = token[tokenNameIndex].buyBook[whilePrice].offer_key;\r\n                while (offers_key <= token[tokenNameIndex].buyBook[whilePrice].offer_length) {\r\n                    volumeAtPrice += token[tokenNameIndex].buyBook[whilePrice].offers[offers_key].amount;\r\n                    offers_key++;\r\n                }\r\n\r\n                arrVolumesBuy[counter] = volumeAtPrice;\r\n\r\n                //next whilePrice\r\n                if (whilePrice == token[tokenNameIndex].buyBook[whilePrice].higherPrice) {\r\n                    break;\r\n                }\r\n                else {\r\n                    whilePrice = token[tokenNameIndex].buyBook[whilePrice].higherPrice;\r\n                }\r\n                counter++;\r\n\r\n            }\r\n        }\r\n\r\n      \r\n        return (arrPricesBuy, arrVolumesBuy);\r\n\r\n\r\n    }\r\n        \r\n    \r\n\r\n    ////////////////////////\r\n    //ORDER BOOK-ASK ORDER//\r\n    ////////////////////////\r\n\r\n\r\n    function getSellOrderBook(string memory symbolName) view   public  returns(uint[] memory,uint[] memory) {\r\n        uint8 tokenNameIndex = getSymbolIndexOrThrow(symbolName);\r\n        uint[] memory arrPricesSell = new uint[](token[tokenNameIndex].amountSellPrice);\r\n        uint[] memory arrVolumesSell = new uint[](token[tokenNameIndex].amountSellPrice);\r\n        uint whilePrice = token[tokenNameIndex].curSellPrice;\r\n        uint counter = 0;\r\n        \r\n        if (token[tokenNameIndex].curSellPrice >0){\r\n            \r\n             while (whilePrice <= token[tokenNameIndex].highestSellprice){\r\n                \r\n                arrPricesSell[counter] = whilePrice;\r\n                uint volumeAtPrice = 0;\r\n                uint offers_key = 0;\r\n                offers_key = token[tokenNameIndex].sellBook[whilePrice].offer_key;\r\n                while (offers_key <= token[tokenNameIndex].sellBook[whilePrice].offer_length) {\r\n                    volumeAtPrice += token[tokenNameIndex].sellBook[whilePrice].offers[offers_key].amount;\r\n                    offers_key++;\r\n                    \r\n                }\r\n                 arrVolumesSell[counter] = volumeAtPrice;\r\n                  //next whilePrice\r\n                if (token[tokenNameIndex].sellBook[whilePrice].higherPrice==0) {\r\n                    break;\r\n                }\r\n                else {\r\n                    whilePrice = token[tokenNameIndex].sellBook[whilePrice].higherPrice;\r\n                }\r\n                counter++;\r\n                \r\n\r\n\r\n             }\r\n\r\n\r\n        }\r\n        return (arrPricesSell, arrVolumesSell);\r\n\r\n    \r\n    }\r\n\r\n    /////////////////////////\r\n    //NEW ORDER -BID ORDER//\r\n    ///////////////////////\r\n\r\n    function  buyToken(string memory symbolName,uint priceInWei,uint amount) public{\r\n        uint8 TokenNameIndex=getSymbolIndexOrThrow(symbolName);\r\n        uint256 AmountInEther_necessary=0;\r\n        uint256 AmountInEther_available=0;\r\n        //if we have enough ether then we can buy it\r\n       \r\n\r\n        \r\n\r\n        if(token[TokenNameIndex].amountSellPrice == 0||token[TokenNameIndex].curSellPrice>=priceInWei){\r\n             AmountInEther_necessary=priceInWei*amount;\r\n        //overflow Check\r\n        require(AmountInEther_necessary>=amount);\r\n        require(AmountInEther_necessary>=priceInWei);\r\n        require(balanceEtherAddress[msg.sender]>=AmountInEther_necessary);\r\n        require(balanceEtherAddress[msg.sender]-AmountInEther_necessary>=0);\r\n            balanceEtherAddress[msg.sender]-=AmountInEther_necessary;\r\n            addBuyOffer(TokenNameIndex,priceInWei,amount,msg.sender);\r\n            \r\n            emit LimtBuyOrderCreated(TokenNameIndex,priceInWei,amount,msg.sender,token[TokenNameIndex].buyBook[priceInWei].offer_length);\r\n        }else{\r\n             //market order: current sell price is smaller or equal to buy price!\r\n\r\n            //1st: find the \"cheapest sell price\" that is lower than the buy amount  [buy: 60@5000] [sell: 50@4500] [sell: 5@5000]\r\n            //2: buy up the volume for 4500\r\n            //3: buy up the volume for 5000\r\n            //if still something remaining -> buyToken\r\n\r\n            //2: buy up the volume\r\n            //2.1 add ether to seller, add symbolName to buyer until offers_key <= offers_length\r\n\r\n            uint whilePrice=token[TokenNameIndex].curBuyPrice;\r\n            uint amountnecessary=amount;\r\n            uint offerkey;\r\n\r\n\r\n            while(whilePrice<=priceInWei && amountnecessary>0){\r\n                offerkey=token[TokenNameIndex].sellBook[whilePrice].offer_key;\r\n                while(offerkey<=token[TokenNameIndex].sellBook[whilePrice].offer_length && amountnecessary>0 ){\r\n                    uint volumeAtPriceFromAddress=token[TokenNameIndex].sellBook[whilePrice].offers[offerkey].amount;\r\n                      //Two choices from here:\r\n                    //1) one person offers not enough volume to fulfill the market order - we use it up completely and move on to the next person who offers the symbolName\r\n                    //2) else: we make use of parts of what a person is offering - lower his amount, fulfill out order.\r\n                    if(volumeAtPriceFromAddress<=amountnecessary){\r\n                        AmountInEther_available=volumeAtPriceFromAddress*whilePrice;\r\n                        require(balanceEtherAddress[msg.sender]>=AmountInEther_available);\r\n                        require(balanceEtherAddress[msg.sender]-AmountInEther_available<=balanceEtherAddress[msg.sender]);\r\n                        balanceEtherAddress[msg.sender]-=AmountInEther_available;\r\n                        require(TokenBalanceAddress[msg.sender][TokenNameIndex]+volumeAtPriceFromAddress>=TokenBalanceAddress[msg.sender][TokenNameIndex]);\r\n                        require(balanceEtherAddress[token[TokenNameIndex].sellBook[whilePrice].offers[offerkey].who]+AmountInEther_available>=balanceEtherAddress[token[TokenNameIndex].sellBook[whilePrice].offers[offerkey].who]);\r\n                        balanceEtherAddress[token[TokenNameIndex].sellBook[whilePrice].offers[offerkey].who]+=AmountInEther_available;\r\n                        TokenBalanceAddress[msg.sender][TokenNameIndex]+=volumeAtPriceFromAddress;\r\n                        token[TokenNameIndex].sellBook[whilePrice].offers[offerkey].amount=0;\r\n                        token[TokenNameIndex].sellBook[whilePrice].offer_key++;\r\n                        \r\n                        SellOrderFulfilled(TokenNameIndex, volumeAtPriceFromAddress,whilePrice, offerkey);\r\n\r\n                        amountnecessary-=volumeAtPriceFromAddress;\r\n\r\n                    }else{\r\n                        require( token[TokenNameIndex].sellBook[whilePrice].offers[offerkey].amount>amountnecessary);\r\n                        AmountInEther_necessary=whilePrice*amountnecessary;\r\n                        require(balanceEtherAddress[msg.sender]-AmountInEther_necessary<=balanceEtherAddress[msg.sender]);\r\n                        balanceEtherAddress[msg.sender]-=AmountInEther_necessary;\r\n                         require(balanceEtherAddress[token[TokenNameIndex].sellBook[whilePrice].offers[offerkey].who]+AmountInEther_necessary>=balanceEtherAddress[token[TokenNameIndex].sellBook[whilePrice].offers[offerkey].who]);\r\n                         token[TokenNameIndex].sellBook[whilePrice].offers[offerkey].amount-=amountnecessary;\r\n                         balanceEtherAddress[token[TokenNameIndex].sellBook[whilePrice].offers[offerkey].who]+=AmountInEther_necessary;\r\n                          TokenBalanceAddress[msg.sender][TokenNameIndex]+=amountnecessary;\r\n                          amountnecessary=0;\r\n                          SellOrderFulfilled(TokenNameIndex, amountnecessary, whilePrice, offerkey);\r\n\r\n\r\n\r\n                    }\r\n                    \r\n                    if(offerkey==token[TokenNameIndex].sellBook[whilePrice].offer_length && token[TokenNameIndex].sellBook[whilePrice].offers[offerkey].amount==0){\r\n                        token[TokenNameIndex].amountSellPrice--;\r\n                        if(whilePrice==token[TokenNameIndex].sellBook[whilePrice].higherPrice ||token[TokenNameIndex].sellBook[whilePrice].higherPrice==0){\r\n                            token[TokenNameIndex].curSellPrice=0;\r\n\r\n                        }else{\r\n                            token[TokenNameIndex].curSellPrice=token[TokenNameIndex].sellBook[whilePrice].higherPrice;\r\n                            token[TokenNameIndex].sellBook[token[TokenNameIndex].sellBook[whilePrice].higherPrice].lowerPrice=0;\r\n                        }\r\n                       \r\n                    }\r\n                     offerkey++;\r\n                }\r\n                whilePrice=token[TokenNameIndex].curSellPrice;\r\n\r\n            }\r\n            if(amountnecessary>0){\r\n                buyToken(symbolName, priceInWei, amountnecessary);\r\n            }\r\n        }\r\n\r\n        \r\n    }\r\n\r\n    /////////////////////////\r\n    //NEW ORDER -ASK ORDER//\r\n    ///////////////////////\r\n\r\n    function sellToken(string memory symbolName,uint priceInWei , uint amount) public{\r\n       uint8 TokenNameIndex=getSymbolIndexOrThrow(symbolName);\r\n        uint256 AmountInEther_necessary=0;\r\n        uint256 AmountInEther_available=0;\r\n        require(token[TokenNameIndex].amountBuyPrice == 0 || token[TokenNameIndex].curBuyPrice <= priceInWei,\"if condition error\");\r\n         if (token[TokenNameIndex].amountBuyPrice == 0 || token[TokenNameIndex].curBuyPrice <= priceInWei){ \r\n        AmountInEther_necessary=priceInWei*amount;\r\n        require(AmountInEther_necessary>=priceInWei,\"problem with AmountInEther_necessary\");\r\n        require(AmountInEther_necessary>=amount,\"problem with AmountInEther_necessary\");\r\n        require(TokenBalanceAddress[msg.sender][TokenNameIndex]>=amount,\"problem with Token\");\r\n        require(TokenBalanceAddress[msg.sender][TokenNameIndex]-amount>=0,\"problem with Token\");\r\n        require(balanceEtherAddress[msg.sender]+AmountInEther_necessary>=balanceEtherAddress[msg.sender],\"problem with balanceethernecessary\");\r\n\r\n        TokenBalanceAddress[msg.sender][TokenNameIndex]-=amount;\r\n\r\n        addSellOffer(TokenNameIndex,priceInWei,amount,msg.sender);\r\n        emit LimitSellOrderCreated(TokenNameIndex,priceInWei,amount,msg.sender,token[TokenNameIndex].sellBook[priceInWei].offer_length);\r\n         }else{\r\n            //market order: current buy price is bigger or equal to sell price!\r\n\r\n            //1st: find the \"highest buy price\" that is higher than the sell amount  [buy: 60@5000] [buy: 50@4500] [sell: 500@4000]\r\n            //2: sell up the volume for 5000\r\n            //3: sell up the volume for 4500\r\n            //if still something remaining -> sellToken limit order\r\n\r\n            //2: sell up the volume\r\n            //2.1 add ether to seller, add symbolName to buyer until offers_key <= offers_length\r\n            uint whilePrice=token[TokenNameIndex].curBuyPrice;\r\n            uint amountnecessary=amount;\r\n            uint offerkey;\r\n            while(whilePrice>=priceInWei && amountnecessary>0){\r\n                offerkey=token[TokenNameIndex].buyBook[whilePrice].offer_key;\r\n                while(offerkey<=token[TokenNameIndex].buyBook[whilePrice].offer_length && amountnecessary>0){\r\n                    uint volumeAtpricefromaddress=token[TokenNameIndex].buyBook[whilePrice].offers[offerkey].amount;\r\n                    //Two choices from here:\r\n                    //1) one person offers not enough volume to fulfill the market order - we use it up completely and move on to the next person who offers the symbolName\r\n                    //2) else: we make use of parts of what a person is offering - lower his amount, fulfill out order.\r\n                    if(amountnecessary>=volumeAtpricefromaddress){\r\n                        AmountInEther_available=volumeAtpricefromaddress*whilePrice;\r\n                        require(TokenBalanceAddress[msg.sender][TokenNameIndex]>=volumeAtpricefromaddress);\r\n                        TokenBalanceAddress[msg.sender][TokenNameIndex]-=volumeAtpricefromaddress;\r\n\r\n                        require( TokenBalanceAddress[msg.sender][TokenNameIndex]-volumeAtpricefromaddress>=0);\r\n                        require(TokenBalanceAddress[token[TokenNameIndex].buyBook[priceInWei].offers[offerkey].who][TokenNameIndex]+volumeAtpricefromaddress>TokenBalanceAddress[token[TokenNameIndex].buyBook[priceInWei].offers[offerkey].who][TokenNameIndex]);\r\n                        require(balanceEtherAddress[msg.sender]+AmountInEther_available>=balanceEtherAddress[msg.sender]);\r\n\r\n                        TokenBalanceAddress[msg.sender][TokenNameIndex]-=volumeAtpricefromaddress;\r\n                        TokenBalanceAddress[token[TokenNameIndex].buyBook[priceInWei].offers[offerkey].who][TokenNameIndex]+=volumeAtpricefromaddress;\r\n                        token[TokenNameIndex].buyBook[priceInWei].offers[offerkey].amount = 0;\r\n                        balanceEtherAddress[msg.sender]+=AmountInEther_available;\r\n                        token[TokenNameIndex].buyBook[whilePrice].offer_key++;\r\n                        SellOrderFulfilled(TokenNameIndex, volumeAtpricefromaddress,whilePrice, offerkey);\r\n                        amountnecessary-=volumeAtpricefromaddress;\r\n\r\n\r\n                    }else{\r\n                        require(volumeAtpricefromaddress-amountnecessary>0);\r\n                        AmountInEther_available=volumeAtpricefromaddress*whilePrice;\r\n                        require(TokenBalanceAddress[msg.sender][TokenNameIndex]>=amountnecessary);\r\n                        TokenBalanceAddress[msg.sender][TokenNameIndex]-=amountnecessary;\r\n                          require(balanceEtherAddress[msg.sender]+AmountInEther_available>=balanceEtherAddress[msg.sender]);\r\n                          token[TokenNameIndex].buyBook[priceInWei].offers[offerkey].amount-=amountnecessary;\r\n                          balanceEtherAddress[msg.sender]+=AmountInEther_available;\r\n                          TokenBalanceAddress[token[TokenNameIndex].buyBook[priceInWei].offers[offerkey].who][TokenNameIndex]+=AmountInEther_available;\r\n                          SellOrderFulfilled(TokenNameIndex, volumeAtpricefromaddress,whilePrice, offerkey);\r\n\r\n                          amountnecessary=0;\r\n                    }\r\n                    if(offerkey==token[TokenNameIndex].buyBook[whilePrice].offer_length && token[TokenNameIndex].buyBook[priceInWei].offers[offerkey].amount==0 )\r\n                    {\r\n                        token[TokenNameIndex].amountBuyPrice--;\r\n                        if(whilePrice==token[TokenNameIndex].buyBook[whilePrice].lowerPrice || token[TokenNameIndex].buyBook[whilePrice].lowerPrice==0){\r\n                            token[TokenNameIndex].curBuyPrice=0;\r\n\r\n                        }else{\r\n                            token[TokenNameIndex].curBuyPrice=token[TokenNameIndex].buyBook[whilePrice].lowerPrice;\r\n                            token[TokenNameIndex].buyBook[token[TokenNameIndex].buyBook[whilePrice].lowerPrice].higherPrice=token[TokenNameIndex].curBuyPrice;\r\n                            \r\n\r\n                        }\r\n\r\n                    }\r\n                    offerkey++;\r\n\r\n                }\r\n\r\n                whilePrice=token[TokenNameIndex].curBuyPrice;\r\n\r\n            }\r\n            if(amountnecessary>0)\r\n            sellToken(symbolName, priceInWei, amount);\r\n         }\r\n       \r\n\r\n        \r\n    }\r\n\r\n    function cancelOrder(string memory symbolName, bool isSellorder,uint  priceInWei,uint offerkey) public{\r\n        uint8 symbolIndex=getSymbolIndexOrThrow(symbolName);\r\n\r\n        if(isSellorder){\r\n            require(token[symbolIndex].sellBook[priceInWei].offers[offerkey].who==msg.sender,\"Your not the owner\");\r\n            uint tokenamount=token[symbolIndex].sellBook[priceInWei].offers[offerkey].amount;\r\n            require(tokenamount+TokenBalanceAddress[msg.sender][symbolIndex]==TokenBalanceAddress[msg.sender][symbolIndex]);\r\n            TokenBalanceAddress[msg.sender][symbolIndex]+=tokenamount;\r\n            token[symbolIndex].sellBook[priceInWei].offers[offerkey].amount=0;\r\n            SellOrderCancelled(symbolIndex, priceInWei, offerkey);\r\n\r\n\r\n        }else{\r\n             require(token[symbolIndex].buyBook[priceInWei].offers[offerkey].who==msg.sender);\r\n             uint ethertorefund=token[symbolIndex].buyBook[priceInWei].offers[offerkey].amount*priceInWei;\r\n             require(balanceEtherAddress[msg.sender]+ethertorefund>=balanceEtherAddress[msg.sender]);\r\n             balanceEtherAddress[msg.sender]+=ethertorefund;\r\n             token[symbolIndex].buyBook[priceInWei].offers[offerkey].amount=0;\r\n             BuyOrderCancelled(symbolIndex,priceInWei, offerkey);\r\n\r\n\r\n        }\r\n        \r\n    }\r\n\r\n    //////////////////////\r\n    /////ADD OFFER///////\r\n    ////////////////////\r\n    function addBuyOffer(uint8 Index,uint priceinwei,uint amount ,address sender) public{\r\n        token[Index].buyBook[priceinwei].offer_length++;\r\n        token[Index].buyBook[priceinwei].offers[token[Index].buyBook[priceinwei].offer_length]=offer(amount,sender);\r\n\r\n\r\n        if(token[Index].buyBook[priceinwei].offer_length==1){\r\n            token[Index].buyBook[priceinwei].offer_key=1;\r\n\r\n            token[Index].amountBuyPrice++;\r\n            uint curBuyprice=token[Index].curBuyPrice;\r\n            uint lowestBuyPrice=token[Index].lowestBuyprice;\r\n            if(lowestBuyPrice==0||lowestBuyPrice>priceinwei){\r\n                if(curBuyprice==0){\r\n                    //inserting the first buy order\r\n                    token[Index].curBuyPrice=priceinwei;\r\n                    token[Index].buyBook[priceinwei].higherPrice=priceinwei;\r\n                    token[Index].buyBook[priceinwei].lowerPrice=0;\r\n                }\r\n                else{\r\n                    //the offer to buy is the Lowest one,\r\n                    token[Index].buyBook[lowestBuyPrice].lowerPrice=priceinwei;\r\n                    token[Index].buyBook[priceinwei].higherPrice=lowestBuyPrice;\r\n                    token[Index].buyBook[priceinwei].lowerPrice=0;\r\n\r\n                }\r\n\r\n                token[Index].lowestBuyprice=priceinwei;\r\n            }else if (curBuyprice < priceinwei) {\r\n                //the offer to buy is the highest one, we don't need to find the right spot\r\n                token[Index].buyBook[curBuyprice].higherPrice = priceinwei;\r\n                token[Index].buyBook[priceinwei].higherPrice = priceinwei;\r\n                token[Index].buyBook[priceinwei].lowerPrice = curBuyprice;\r\n                token[Index].curBuyPrice = priceinwei;\r\n\r\n            }else {\r\n                //we are somewhere in the middle, we need to find the right spot first...\r\n\r\n                uint buyPrice = token[Index].curBuyPrice;\r\n                bool weFoundIt = false;\r\n                while (buyPrice > 0 && !weFoundIt) {\r\n                    if (\r\n                    buyPrice < priceinwei &&\r\n                    token[Index].buyBook[buyPrice].higherPrice > priceinwei\r\n                    ) {\r\n                        //set the new order-book entry higher/lowerPrice first right\r\n                        token[Index].buyBook[priceinwei].lowerPrice = buyPrice;\r\n                        token[Index].buyBook[priceinwei].higherPrice = token[Index].buyBook[buyPrice].higherPrice;\r\n\r\n                        //set the higherPrice'd order-book entries lowerPrice to the current Price\r\n                        token[Index].buyBook[token[Index].buyBook[buyPrice].higherPrice].lowerPrice = priceinwei;\r\n                        //set the lowerPrice'd order-book entries higherPrice to the current Price\r\n                        token[Index].buyBook[buyPrice].higherPrice = priceinwei;\r\n\r\n                        //set we found it.\r\n                        weFoundIt = true;\r\n                    }\r\n                    buyPrice = token[Index].buyBook[buyPrice].lowerPrice;\r\n                }\r\n            \r\n\r\n        }\r\n\r\n\r\n\r\n        }\r\n    }\r\n\r\n     function addSellOffer(uint8 Index,uint priceinwei,uint amount ,address sender) public{\r\n        token[Index].sellBook[priceinwei].offer_length++;\r\n        token[Index].sellBook[priceinwei].offers[token[Index].buyBook[priceinwei].offer_length]=offer(amount,sender);\r\n\r\n        if(token[Index].sellBook[priceinwei].offer_length==1){\r\n            token[Index].sellBook[priceinwei].offer_key=1;\r\n            uint cursellprice=token[Index].curSellPrice;\r\n            uint highestsellprice=token[Index].highestSellprice;\r\n            if(highestsellprice==0||highestsellprice<priceinwei){\r\n                if(cursellprice==0){\r\n                    token[Index].curSellPrice=priceinwei;\r\n                    token[Index].sellBook[priceinwei].higherPrice=0;\r\n                    token[Index].sellBook[priceinwei].lowerPrice=0;\r\n                }\r\n                else{\r\n                    token[Index].sellBook[priceinwei].lowerPrice=highestsellprice;\r\n                    token[Index].sellBook[priceinwei].higherPrice=0;\r\n                    token[Index].sellBook[highestsellprice].higherPrice=priceinwei;\r\n                }\r\n                token[Index].highestSellprice=priceinwei;\r\n\r\n            }else if(cursellprice>priceinwei){\r\n                token[Index].sellBook[cursellprice].lowerPrice=priceinwei;\r\n                token[Index].sellBook[priceinwei].lowerPrice=0;\r\n                token[Index].sellBook[priceinwei].higherPrice=cursellprice;\r\n                token[Index].curSellPrice=priceinwei;\r\n\r\n\r\n\r\n            }else\r\n            {\r\n                    uint sellprice=token[Index].curSellPrice;\r\n                    bool weFoundit=false;\r\n                    while(sellprice>0&&!weFoundit)\r\n                    {\r\n                        if(token[Index].sellBook[sellprice].higherPrice>priceinwei  &&  priceinwei>sellprice)\r\n                        {\r\n                            \r\n                            token[Index].sellBook[priceinwei].higherPrice=token[Index].sellBook[sellprice].higherPrice;\r\n                            token[Index].sellBook[priceinwei].lowerPrice=sellprice;\r\n                            token[Index].sellBook[sellprice].higherPrice=priceinwei;\r\n                            token[Index].sellBook[token[Index].sellBook[sellprice].higherPrice].lowerPrice=priceinwei;\r\n                            weFoundit=true;\r\n\r\n                        }\r\n                        sellprice=token[Index].sellBook[sellprice].higherPrice;\r\n                    }\r\n\r\n\r\n\r\n\r\n            }\r\n\r\n\r\n        }         \r\n     }\r\n\r\n    \r\n}",
  "sourcePath": "C:/Users/santo/Distributed_exchange/contracts/Exchange.sol",
  "compiler": {
    "name": "solc",
    "version": "0.7.6+commit.7338295f.Emscripten.clang"
  },
  "schemaVersion": "3.3.2",
  "updatedAt": "2021-02-08T12:18:32.614Z",
  "networkType": "ethereum",
  "devdoc": {
    "kind": "dev",
    "methods": {},
    "version": 1
  },
  "userdoc": {
    "events": {
      "DepositTokenEmit(address,uint256,uint256,uint256)": {
        "notice": "Events  FOR WITHDRAWAL AND DEPOSITS///"
      }
    },
    "kind": "user",
    "methods": {
      "depositToken(string,uint256)": {
        "notice": "deposit and Withdraw////"
      },
      "stringEqual(string,string)": {
        "notice": "STRING COMPARISON/////"
      }
    },
    "version": 1
  }
}